:020000040000FA
:1000000000008A150A12CE2AF200030E8301F100C5
:100010000A088A01F000040883160313DA00053089
:1000200083160313D9075908143A031D24288A1587
:100030000A122C208A110A128A110A1233278A11F5
:100040000A1283160313D9018A110A12AA258A11EA
:100050000A12831203130B11D83081008316031385
:100060005A0883120313840070088A008301710EFA
:100070008300F20E720E090083120313B9007F0889
:10008000BA00BB010530390203185729003083122A
:1000900003138A005430831203133907031C5328B7
:1000A000831203138A0A820059288C28BF28F22859
:1000B0002529003083120313BC000130B9003A082F
:1000C000003C03196A2883120313B90DBC0D013ECD
:1000D000031C632883120313050883120313BD0056
:1000E000BE013D08B9050030BC053C08BE0039081A
:1000F000BD003A08003C031987280310831203133C
:10010000BE1B0314BE0CBD0C013E031C7D288312D4
:1001100003133D08BB005729003083120313BC00B2
:100120000130B9003A08003C03199D2883120313DB
:10013000B90DBC0D013E031C96288312031306085B
:1001400083120313BD00BE013D08B9050030BC0594
:100150003C08BE003908BD003A08003C0319BA2823
:10016000031083120313BE1B0314BE0CBD0C013E0F
:10017000031CB028831203133D08BB00572900302D
:1001800083120313BC000130B9003A08003C031984
:10019000D02883120313B90DBC0D013E031CC928DE
:1001A00083120313070883120313BD00BE013D0829
:1001B000B9050030BC053C08BE003908BD003A084E
:1001C000003C0319ED28031083120313BE1B031414
:1001D000BE0CBD0C013E031CE328831203133D0833
:1001E000BB005729003083120313BC000130B90053
:1001F0003A08003C0319032983120313B90DBC0DFF
:10020000013E031CFC288312031308088312031306
:10021000BD00BE013D08B9050030BC053C08BE006C
:100220003908BD003A08003C031920290310831245
:100230000313BE1B0314BE0CBD0C013E031C162988
:10024000831203133D08BB005729003083120313A8
:10025000BC000130B9003A08003C0319362983126A
:100260000313B90DBC0D013E031C2F298312031388
:10027000090883120313BD00BE013D08B905003013
:10028000BC053C08BE003908BD003A08003C031913
:100290005329031083120313BE1B0314BE0CBD0CA1
:1002A000013E031C4929831203133D08BB0083123E
:1002B00003133B08080083120313B700B80105308D
:1002C0003702031898290130831203138A00713012
:1002D000831203133707031C7029831203138A0A3E
:1002E000820076297D2984298B2992298312031380
:1002F000050883120313B800982983120313060814
:1003000083120313B800982983120313070883127A
:100310000313B800982983120313080883120313E8
:10032000B800982983120313090883120313B80035
:10033000831203133808080083120313B3007F08E5
:10034000B4007E08B500053033020318902A01304E
:10035000831203138A00B530831203133307031C7F
:10036000B429831203138A0A8200BA29E529102AC4
:100370003B2A662A013083120313B3003408003C81
:100380000319C82983120313B30D013E031CC229AC
:1003900083120313B3098312031305088312031393
:1003A000B3053508B6003408003C0319DD29831273
:1003B0000313B60D013E031CD7298312031336081D
:1003C0003304831203138500902A01308312031330
:1003D000B3003408003C0319F32983120313B30D4F
:1003E000013E031CED2983120313B3098312031387
:1003F000060883120313B3053508B6003408003C21
:100400000319082A83120313B60D013E031C022AA6
:100410008312031336083304831203138600902AD1
:10042000013083120313B3003408003C03191E2A61
:1004300083120313B30D013E031C182A8312031306
:10044000B30983120313070883120313B305350896
:10045000B6003408003C0319332A83120313B60D87
:10046000013E031C2D2A8312031336083304831222
:1004700003138700902A013083120313B30034085A
:10048000003C0319492A83120313B30D013E031CD8
:10049000432A83120313B309831203130808831238
:1004A0000313B3053508B6003408003C03195E2A6F
:1004B00083120313B60D013E031C582A8312031343
:1004C00036083304831203138800902A0130831204
:1004D0000313B3003408003C0319742A8312031376
:1004E000B30D013E031C6E2A83120313B30983125A
:1004F0000313090883120313B3053508B600340843
:10050000003C0319892A83120313B60D013E031C14
:10051000832A8312031336083304831203138900DA
:10052000080083120313AC007F08AD00AE01003059
:1005300083120313B0000130AF002E08003C0319F2
:10054000A82A83120313AF0DB00D013E031CA12A8C
:1005500083120313B2012D08B100AF050030B005BE
:100560003008B2002F08B1002E08003C0319C22A3F
:10057000031083120313B21B0314B20CB10C013E1F
:10058000031CB82A831203133108AF00FE002E08A3
:10059000FF002C088A110A129C218A110A12831268
:1005A0000313AE0A08302E02031C972A0800080025
:1005B00083120313AA007F08AB007E08FE002B08FD
:1005C000FF002A088A110A129C218A110A120800C7
:1005D00083120313A6007F08A7007E08A800053039
:1005E00026020318DC2B0330831203138A00013028
:1005F000831203132607031C002B831203138A0A9A
:100600008200062B312B5C2B872BB22B01308312FF
:100610000313A6002808003C0319142B83120313AC
:10062000A60D013E031C0E2B83120313A60983168D
:100630000313050883120313A6052708A900280839
:10064000003C0319292B83120313A90D013E031C3F
:10065000232B831203132908260483160313850012
:10066000DC2B013083120313A6002808003C031979
:100670003F2B83120313A60D013E031C392B83125B
:100680000313A60983160313060883120313A60592
:100690002708A9002808003C0319542B83120313D0
:1006A000A90D013E031C4E2B8312031329082604B7
:1006B000831603138600DC2B013083120313A6007C
:1006C0002808003C03196A2B83120313A60D013E70
:1006D000031C642B83120313A60983160313070854
:1006E00083120313A6052708A9002808003C031954
:1006F0007F2B83120313A90D013E031C792B831258
:10070000031329082604831603138700DC2B01300A
:1007100083120313A6002808003C0319952B8312AB
:100720000313A60D013E031C8F2B83120313A6098E
:1007300083160313080883120313A6052708A900CC
:100740002808003C0319AA2B83120313A90D013EAC
:10075000031CA42B831203132908260483160313F6
:100760008800DC2B013083120313A6002808003C0C
:100770000319C02B83120313A60D013E031CBA2BD1
:1007800083120313A60983160313090883120313A4
:10079000A6052708A9002808003C0319D52B8312B9
:1007A0000313A90D013E031CCF2B83120313290849
:1007B0002604831603138900080083120313A40080
:1007C0007F08A5000530240203181B2C0330831278
:1007D00003138A00F430831203132407031CF32B42
:1007E000831203138A0A8200F92B002C072C0E2C8B
:1007F000152C8312031325088312031385001B2C69
:100800008312031325088312031386001B2C831203
:10081000031325088312031387001B2C8312031371
:1008200025088312031388001B2C83120313250849
:10083000831203138900080083120313A0007F08AA
:10084000A100053020020318402D04308312031349
:100850008A003330831203132007031C322C8312C7
:1008600003138A0A8200382C6D2CA22CD72C0C2D55
:1008700083120313A001013083120313A200200886
:10088000003C0319492C83120313A20D013E031CE3
:10089000432C83120313A209831603130508831242
:1008A0000313A2052108A3002008003C03195E2CB5
:1008B00083120313A30D013E031C582C8312031350
:1008C0002308220483160313850083120313A00A4E
:1008D00008302002031C3B2C402D83120313A0017F
:1008E000013083120313A2002008003C03197E2C60
:1008F00083120313A20D013E031C782C83120313F1
:10090000A20983160313060883120313A205210804
:10091000A3002008003C0319932C83120313A30D9A
:10092000013E031C8D2C831203132308220483161B
:100930000313860083120313A00A08302002031C4D
:10094000702C402D83120313A00101308312031376
:10095000A2002008003C0319B32C83120313A20D3C
:10096000013E031CAD2C83120313A209831603134B
:10097000070883120313A2052108A3002008003CE6
:100980000319C82C83120313A30D013E031CC22CB0
:100990008312031323082204831603138700831290
:1009A0000313A00A08302002031CA52C402D83123B
:1009B0000313A001013083120313A2002008003C9E
:1009C0000319E82C83120313A20D013E031CE22C31
:1009D00083120313A2098316031308088312031357
:1009E000A2052108A3002008003C0319FD2C831256
:1009F0000313A30D013E031CF72C831203132308DA
:100A0000220483160313880083120313A00A0830FC
:100A10002002031CDA2C402D83120313A0010130A5
:100A200083120313A2002008003C03191D2D83121A
:100A30000313A20D013E031C172D83120313A209F9
:100A400083160313090883120313A2052108A300C8
:100A50002008003C0319322D83120313A30D013E1D
:100A6000031C2C2D83120313230822048316031363
:100A7000890083120313A00A05302002031C0F2DE6
:100A8000080083120313E6007F08E7006608D33EE0
:100A9000E60000300318013EE800660883120313E5
:100AA0008400831383120313681883176708831263
:100AB00003138000080083120313E4007F08E5009D
:100AC000043064020318A92D0530831203138A0031
:100AD0007230831203136407031C712D83120313F6
:100AE0008A0A8200762D832D902D9D2D831203136B
:100AF0006508FE000730FF0001308A110A129C21B0
:100B00008A110A12A92D831203136508FE0006300C
:100B1000FF0001308A110A129C218A110A12A92DA4
:100B2000831203136508FE000530FF0001308A11AF
:100B30000A129C218A110A12A92D83120313650837
:100B4000FE000430FF0001308A110A129C218A1134
:100B50000A1208000030FF0000308A110A125B25DB
:100B60008A110A120030FF0001308A110A125B2537
:100B70008A110A120030FF0002308A110A125B2526
:100B80008A110A120030FF0003308A110A125B2515
:100B90008A110A120030FF0000308A150A12F92368
:100BA0008A110A12831203136908D33E83120313B6
:100BB000E10000300318013EE200610883120313D4
:100BC00084008313831203136218831783120313A1
:100BD000000883120313E300AC3EE1000030031869
:100BE000013EE20061088312031384008313831221
:100BF000031362188317831203130008831203136D
:100C0000E300FF0003308A110A1291228A110A12AE
:100C10000130FF008312031369088A110A125B2551
:100C20008A110A12831203136908033A031D1A2E4C
:100C3000E9011D2E83120313E90A0800831203132E
:100C4000DC007F08DD007E08DE000030FF0003309E
:100C50008A110A121C248A110A1204308312031307
:100C60005C020318702E0630831203138A00413091
:100C7000831203135C07031C402E831203138A0A9A
:100C80008200452E502E5B2E662E0730FE0000306F
:100C9000FF0001308A110A12E8228A110A12702E0E
:100CA0000630FE000030FF0001308A110A12E822EF
:100CB0008A110A12702E0530FE000030FF0001304C
:100CC0008A110A12E8228A110A12702E0430FE00DC
:100CD0000030FF0001308A110A12E8228A110A123C
:100CE000831203135E08AC3EDF0000300318013EA0
:100CF000E0005F088312031384008313831203133D
:100D000060188317831203130008FF0003308A1151
:100D10000A1291228A110A12831203135D08FF003E
:100D20005C088A110A125B258A110A1283120313C6
:100D30005E08FF005C088A110A1241258A110A1216
:100D4000080083120313EC007F08EB00E830FD007D
:100D50000330FE006B08FF006C088A110A1270272E
:100D60008A110A1283120313EE007F08ED00EF00D0
:100D7000FF0000308A110A1241258A110A12E83058
:100D8000FD000330FE00831203136B08FF006C08A4
:100D90008A150A12B6238A110A1283120313EE006F
:100DA0007F08ED006430FD000030FE006D08FF009C
:100DB0006E088A110A1270278A110A12831203130D
:100DC000EE007F08ED00EF00FF0001308A110A12EB
:100DD00041258A110A126430FD000030FE008312A2
:100DE00003136B08FF006C088A150A12B6238A11D8
:100DF0000A1283120313EE007F08ED000A30FD0093
:100E00000030FE006D08FF006E088A110A1270277C
:100E10008A110A1283120313EE007F08ED00EF001F
:100E2000FF0002308A110A1241258A110A120A3083
:100E3000FD000030FE00831203136B08FF006C08F6
:100E40008A150A12B6238A110A1283120313EC00C0
:100E50007F08EB00ED00FF0003308A110A124125E4
:100E60008A110A12080001308A150A1200208A111C
:100E70000A1283120313EA00033A031D442F831658
:100E80000313D701D8015F2F00308A150A12002002
:100E90008A110A1283120313EA00013A031D5F2F1D
:100EA0002730831603135802031D582F10305702A2
:100EB00003185F2F83160313D70A0319D80A831662
:100EC00003135708FF0058088A110A12A1268A1135
:100ED0000A12080083160313D8007F08D700080001
:100EE00083160313B8007F08B7007E08BA007D0898
:100EF000B900BB01BC010130BD00BE0139083A0494
:100F0000031D862FFF30FF00FF30BE2F8316031313
:100F100039083A08BF00BF1B942F0310B90DBA0D52
:100F20000310BD0DBE0D862F831603133D083E042E
:100F30000319B92F3A083802031DA02F39083702C8
:100F4000031CB02F831603133D08BB073E0803188C
:100F50003E0FBC073908B7023A08031C3A0FB80223
:100F6000031083160313BA0CB90C0310BE0CBD0C8E
:100F7000942F831603133B08FF003C080800003A37
:100F80000319C62F803A0319CD2F00347E08840040
:100F900083137F188317000808007F088A007E08E3
:100FA00082000800003A0319DA2F803A0319E42F6F
:100FB000FF0100347E08840083137F188317000824
:100FC000FF00840A000808008A110A12CD27FD00DC
:100FD000FE0FFF03FF0A8A110A12CD27FC007D08CD
:100FE000FF007C0808003F3406345B344F3466341D
:100FF0006D347D3407347F346F3400340034003472
:1010000083120313CC000330FF004C088A150A1228
:1010100027248A150A1283120313CD00CE014D082E
:10102000503ECC000030CF00003003184E0FCF07E9
:101030000230CC070318CF0A4C0883120313840034
:101040008313831203134F188317831203130008AB
:1010500083120313CD00080083120313C40103306D
:10106000FF008312031344088A150A1227248A15E5
:101070000A1283120313C500C6014508503EC7007B
:101080000030C80000300318460FC8074508503E1E
:10109000C50046080318460F003EC600C50A0319DE
:1010A000C60A4508831203138400831383120313B3
:1010B0004618831783120313000883120313C90011
:1010C0004708831203138400831383120313481801
:1010D000831749088312031380000130FF0000309A
:1010E0008A150A12F9238A150A120430831203138F
:1010F00044020318F0280830831203138A00893051
:10110000831203134407031C8828831203138A0ADB
:1011100082008D28A628BF28D8280330FF00013080
:101120008A110A123C208A150A1283120313C7007F
:101130004508831203138400831383120313461894
:1011400083174708831203138000F0280230FF0042
:1011500001308A110A123C208A150A1283120313E5
:10116000C7004508831203138400831383120313FB
:10117000461883174708831203138000F0280130B4
:10118000FF0001308A110A123C208A150A128312CC
:101190000313C700450883120313840083138312CB
:1011A0000313461883174708831203138000F0289F
:1011B0000030FF0001308A110A123C208A150A1201
:1011C00083120313C700450883120313840083139B
:1011D00083120313461883174708831203138000F2
:1011E0000330FF008312031344088A150A122724D0
:1011F0008A150A1283120313C500C6014508503E22
:10120000C50000300318460F003EC60002304507F7
:10121000C700C801C80D4608C80747088312031352
:101220008400831383120313481883178312031354
:10123000000883120313C900043049020318F5297A
:101240000930831203138A002E30831203134907D7
:10125000031C2D29831203138A0A820032296D2967
:101260009629D1298312031345088312031384009E
:101270008313831203134618831783120313000882
:1012800083120313C9004908031DF52901304507DE
:10129000C900CA01CA0D4608CA07490883120313C8
:1012A00084008313831203134A18831783120313D2
:1012B000000883120313CB004B08031DF5294708D0
:1012C00083120313840083138312031348188317B4
:1012D0000130831203138000F529013083120313B8
:1012E0004507C900CA01CA0D4608CA074908831242
:1012F000031384008313831203134A188317831282
:101300000313000883120313CB004B08031DF529B8
:1013100047088312031384008313831203134818AE
:1013200083170230831203138000F52983120313FD
:101330004508831203138400831383120313461892
:10134000831783120313000883120313C900013AA1
:10135000031DF52901304507C900CA01CA0D460819
:10136000CA074908831203138400831383120313EB
:101370004A18831783120313000883120313CB0048
:10138000013A031DF52947088312031384008313D0
:10139000831203134818831703308312031380004A
:1013A000F52983120313C50A0319C60A45088312D7
:1013B00003138400831383120313461883178312C5
:1013C0000313000883120313C900013A031DF52912
:1013D00047088312031384008313831203134818EE
:1013E0008317003083120313800083120313C40A8F
:1013F00004304402031C2F28080083120313BF008B
:101400007F08C00004303F020318432A0A308312C9
:1014100003138A001430831203133F07031C132A9B
:10142000831203138A0A8200182A232A2E2A392AB1
:101430000330FE000130FF0001308A110A12E82259
:101440008A150A12432A0230FE000130FF000130E3
:101450008A110A12E8228A150A12432A0130FE0074
:101460000130FF0001308A110A12E8228A150A129F
:10147000432A0030FE000130FF0001308A110A12B9
:10148000E8228A150A120330FF00831203133F0873
:101490008A150A1227248A150A1283120313C1001F
:1014A000C2014108503EC1000030BF0000300318A7
:1014B000420FBF0702304107C200C301C30D3F08FE
:1014C000C307420883120313840083138312031398
:1014D00043188317400883120313800004308312DB
:1014E000031340020318CD2A0A30831203138A0023
:1014F0008230831203134007031C812A83120313D3
:101500008A0A8200862AAC2AAC2A862A831203130E
:1015100041088312031384008313831203133F18BB
:1015200083170130831203138000013083120313E9
:101530004107C000C201C20D3F08C2074008831224
:10154000031384008313831203134218831701309B
:10155000831203138000CD2A8312031341088312E0
:10156000031384008313831203133F18831700307F
:1015700083120313800083120313C10A0319BF0AE5
:1015800041088312031384008313831203133F184B
:101590008317003083120313800008004830FE00D8
:1015A0000C30FF0080308A110A12D2278A150A12E5
:1015B00083160313A1007F08A0004A30A2000C305C
:1015C000A300831603132008A4002108A500FF3000
:1015D000A007031CA103240825040319662B04306B
:1015E0002207A400A501A50D2308A5072408FE00D5
:1015F0002508FF0080308A110A12D2278A150A12A4
:1016000083160313A7007F08A6002208FE00230804
:10161000FF0080308A110A12D2278A150A12831617
:101620000313A900A5007F08A800A4000230220728
:10163000A400A501A50D2308A5072408FE00250880
:10164000FF0080308A110A12D2278A150A128316E7
:101650000313A500AB007F08A400AA0083160313A0
:101660002608AA002708AB00FF30A607031CA70323
:101670002A082B0403195F2B2808FE002908FF0005
:1016800080308A110A12BF278A150A1283160313A3
:10169000AA00240883120313840083138316031300
:1016A000251883172A088312031380008316031357
:1016B000A80A0319A90AA40A0319A50A2E2B0630A1
:1016C00083160313A2070318A30AE12A8A150A1234
:1016D0006A2B08000030FF0000308A150A12FD2135
:1016E0008A150A120030FF0001308A150A12FD2106
:1016F0008A150A120030FF0000308A110A126A2788
:101700008A150A120A30FE000130FF0000308A11EB
:101710000A121E268A150A120A30FE000130FF0046
:1017200001308A110A121E268A150A120A30FE009A
:101730000130FF0002308A110A121E268A150A1291
:101740000A30FE000130FF0003308A110A121E2603
:101750008A150A128A150A126B248A150A128A152A
:101760000A1262248A150A12B42B08008316031386
:10177000C9007F08C8007E08CB007D08CA004B0462
:10178000031DC62BFF30FF00FF30F82B01308316FE
:101790000313CC00831603134A084B08CD00CD1B5E
:1017A000D62B0310CA0DCB0DCC0ACA2B00308316E2
:1017B00003134C040319F32B4B084902031DE22BBE
:1017C0004A084802031CEC2B831603134A08C8027C
:1017D0004B08031C4B0FC902031083160313CB0CD9
:1017E000CA0CCC03D62B831603134808FF00490804
:1017F000080083160313C1007F08C000C201C301A3
:101800008316031341084302031D082C40084202BB
:101810000318262C783083160313C400C501FF304B
:10182000831603134407C600FF30C700450803189A
:10183000450FC7074608C4004708C50046084704C7
:10184000031D0F2CC20A0319C30A002C08008316BB
:101850000313CE007F08CF00D0010830D1008316DB
:1018600003134E1C352C4F08D007831603134E0864
:10187000D2000310520CCE0003104F0DD200CF0047
:101880005103D200D1005208031D2F2C500808002C
:1018900004340034FE340734D734003402340034C6
:1018A00077340C34D334003404340034F334073444
:1018B000AC3400340B3400347B340C34DB3400346F
:1018C00001340034831203130B11D83081008316C6
:1018D000031381120800831603138111011481146C
:1018E00001158112831203138B178B1608000A341B
:0818F00001340234033400341A
:02400E00323F3F
:00000001FF
